{
  "_format": "hh-sol-artifact-1",
  "contractName": "GameCore",
  "sourceName": "contracts/GameCore.sol",
  "abi": [
    {
      "inputs": [
        {
          "internalType": "address",
          "name": "_proofVerifier",
          "type": "address"
        },
        {
          "internalType": "address",
          "name": "_stateManager",
          "type": "address"
        }
      ],
      "stateMutability": "nonpayable",
      "type": "constructor"
    },
    {
      "anonymous": false,
      "inputs": [
        {
          "indexed": true,
          "internalType": "address",
          "name": "player",
          "type": "address"
        },
        {
          "indexed": false,
          "internalType": "uint256",
          "name": "itemId",
          "type": "uint256"
        }
      ],
      "name": "ItemCrafted",
      "type": "event"
    },
    {
      "anonymous": false,
      "inputs": [
        {
          "indexed": true,
          "internalType": "address",
          "name": "player",
          "type": "address"
        },
        {
          "indexed": false,
          "internalType": "bytes32",
          "name": "newCommitment",
          "type": "bytes32"
        }
      ],
      "name": "PlayerMoved",
      "type": "event"
    },
    {
      "anonymous": false,
      "inputs": [
        {
          "indexed": true,
          "internalType": "address",
          "name": "player",
          "type": "address"
        },
        {
          "indexed": false,
          "internalType": "uint256",
          "name": "locationId",
          "type": "uint256"
        },
        {
          "indexed": false,
          "internalType": "uint256",
          "name": "resourceType",
          "type": "uint256"
        }
      ],
      "name": "ResourcesGathered",
      "type": "event"
    },
    {
      "anonymous": false,
      "inputs": [
        {
          "indexed": true,
          "internalType": "address",
          "name": "player",
          "type": "address"
        },
        {
          "indexed": false,
          "internalType": "uint256",
          "name": "amount",
          "type": "uint256"
        }
      ],
      "name": "RewardClaimed",
      "type": "event"
    },
    {
      "anonymous": false,
      "inputs": [
        {
          "indexed": true,
          "internalType": "uint256",
          "name": "store",
          "type": "uint256"
        },
        {
          "indexed": false,
          "internalType": "uint8",
          "name": "actionType",
          "type": "uint8"
        }
      ],
      "name": "StoreManaged",
      "type": "event"
    },
    {
      "anonymous": false,
      "inputs": [
        {
          "indexed": true,
          "internalType": "address",
          "name": "player",
          "type": "address"
        },
        {
          "indexed": false,
          "internalType": "uint256",
          "name": "storeId",
          "type": "uint256"
        }
      ],
      "name": "StorePurchased",
      "type": "event"
    },
    {
      "anonymous": false,
      "inputs": [
        {
          "indexed": true,
          "internalType": "address",
          "name": "player",
          "type": "address"
        },
        {
          "indexed": true,
          "internalType": "address",
          "name": "store",
          "type": "address"
        },
        {
          "indexed": false,
          "internalType": "uint256",
          "name": "itemType",
          "type": "uint256"
        },
        {
          "indexed": false,
          "internalType": "uint256",
          "name": "quantity",
          "type": "uint256"
        }
      ],
      "name": "TradeExecuted",
      "type": "event"
    },
    {
      "inputs": [],
      "name": "BASE_REWARD_RATE",
      "outputs": [
        {
          "internalType": "uint256",
          "name": "",
          "type": "uint256"
        }
      ],
      "stateMutability": "view",
      "type": "function"
    },
    {
      "inputs": [],
      "name": "MAX_CLAIM_INTERVAL",
      "outputs": [
        {
          "internalType": "uint256",
          "name": "",
          "type": "uint256"
        }
      ],
      "stateMutability": "view",
      "type": "function"
    },
    {
      "inputs": [],
      "name": "MOVEMENT_XP",
      "outputs": [
        {
          "internalType": "uint256",
          "name": "",
          "type": "uint256"
        }
      ],
      "stateMutability": "view",
      "type": "function"
    },
    {
      "inputs": [
        {
          "internalType": "uint256[2]",
          "name": "a",
          "type": "uint256[2]"
        },
        {
          "internalType": "uint256[2][2]",
          "name": "b",
          "type": "uint256[2][2]"
        },
        {
          "internalType": "uint256[2]",
          "name": "c",
          "type": "uint256[2]"
        },
        {
          "internalType": "uint256[4]",
          "name": "publicSignals",
          "type": "uint256[4]"
        }
      ],
      "name": "claimReward",
      "outputs": [],
      "stateMutability": "nonpayable",
      "type": "function"
    },
    {
      "inputs": [
        {
          "internalType": "uint256[2]",
          "name": "a",
          "type": "uint256[2]"
        },
        {
          "internalType": "uint256[2][2]",
          "name": "b",
          "type": "uint256[2][2]"
        },
        {
          "internalType": "uint256[2]",
          "name": "c",
          "type": "uint256[2]"
        },
        {
          "internalType": "uint256[5]",
          "name": "publicSignals",
          "type": "uint256[5]"
        }
      ],
      "name": "craftItem",
      "outputs": [],
      "stateMutability": "nonpayable",
      "type": "function"
    },
    {
      "inputs": [
        {
          "internalType": "uint256[2]",
          "name": "a",
          "type": "uint256[2]"
        },
        {
          "internalType": "uint256[2][2]",
          "name": "b",
          "type": "uint256[2][2]"
        },
        {
          "internalType": "uint256[2]",
          "name": "c",
          "type": "uint256[2]"
        },
        {
          "internalType": "uint256[4]",
          "name": "publicSignals",
          "type": "uint256[4]"
        }
      ],
      "name": "gatherResources",
      "outputs": [],
      "stateMutability": "nonpayable",
      "type": "function"
    },
    {
      "inputs": [
        {
          "internalType": "uint256[2]",
          "name": "a",
          "type": "uint256[2]"
        },
        {
          "internalType": "uint256[2][2]",
          "name": "b",
          "type": "uint256[2][2]"
        },
        {
          "internalType": "uint256[2]",
          "name": "c",
          "type": "uint256[2]"
        },
        {
          "internalType": "uint256[3]",
          "name": "publicSignals",
          "type": "uint256[3]"
        }
      ],
      "name": "manageStore",
      "outputs": [],
      "stateMutability": "nonpayable",
      "type": "function"
    },
    {
      "inputs": [
        {
          "internalType": "uint256[2]",
          "name": "a",
          "type": "uint256[2]"
        },
        {
          "internalType": "uint256[2][2]",
          "name": "b",
          "type": "uint256[2][2]"
        },
        {
          "internalType": "uint256[2]",
          "name": "c",
          "type": "uint256[2]"
        },
        {
          "internalType": "uint256[3]",
          "name": "publicSignals",
          "type": "uint256[3]"
        }
      ],
      "name": "move",
      "outputs": [],
      "stateMutability": "nonpayable",
      "type": "function"
    },
    {
      "inputs": [],
      "name": "proofVerifier",
      "outputs": [
        {
          "internalType": "contract ProofVerifier",
          "name": "",
          "type": "address"
        }
      ],
      "stateMutability": "view",
      "type": "function"
    },
    {
      "inputs": [
        {
          "internalType": "uint256[2]",
          "name": "a",
          "type": "uint256[2]"
        },
        {
          "internalType": "uint256[2][2]",
          "name": "b",
          "type": "uint256[2][2]"
        },
        {
          "internalType": "uint256[2]",
          "name": "c",
          "type": "uint256[2]"
        },
        {
          "internalType": "uint256[4]",
          "name": "publicSignals",
          "type": "uint256[4]"
        }
      ],
      "name": "purchaseStore",
      "outputs": [],
      "stateMutability": "nonpayable",
      "type": "function"
    },
    {
      "inputs": [],
      "name": "stateManager",
      "outputs": [
        {
          "internalType": "contract StateManager",
          "name": "",
          "type": "address"
        }
      ],
      "stateMutability": "view",
      "type": "function"
    },
    {
      "inputs": [
        {
          "internalType": "uint256[2]",
          "name": "a",
          "type": "uint256[2]"
        },
        {
          "internalType": "uint256[2][2]",
          "name": "b",
          "type": "uint256[2][2]"
        },
        {
          "internalType": "uint256[2]",
          "name": "c",
          "type": "uint256[2]"
        },
        {
          "internalType": "uint256[5]",
          "name": "publicSignals",
          "type": "uint256[5]"
        }
      ],
      "name": "tradeWithStore",
      "outputs": [],
      "stateMutability": "nonpayable",
      "type": "function"
    },
    {
      "inputs": [
        {
          "internalType": "uint256[2]",
          "name": "a",
          "type": "uint256[2]"
        },
        {
          "internalType": "uint256[2][2]",
          "name": "b",
          "type": "uint256[2][2]"
        },
        {
          "internalType": "uint256[2]",
          "name": "c",
          "type": "uint256[2]"
        },
        {
          "internalType": "uint256[6]",
          "name": "publicSignals",
          "type": "uint256[6]"
        }
      ],
      "name": "travelToLocation",
      "outputs": [],
      "stateMutability": "nonpayable",
      "type": "function"
    }
  ],
  "bytecode": "0x60c06040523480156200001157600080fd5b5060405162001f7838038062001f78833981016040819052620000349162000069565b6001600160a01b039182166080521660a052620000a1565b80516001600160a01b03811681146200006457600080fd5b919050565b600080604083850312156200007d57600080fd5b62000088836200004c565b915062000098602084016200004c565b90509250929050565b60805160a051611ddf620001996000396000818161012e01528181610309015281816103e10152818161058001528181610627015281816107c30152818161086a015281816108e801528181610aa501528181610b7401528181610bf801528181610da501528181610e4c01528181610eca0152818161107c01528181611153015281816111d70152818161139001528181611437015281816114ba01528181611535015281816116d8015261177f0152600081816101a6015281816102180152818161049c015281816106d9015281816109aa01528181610cad01528181610f8d0152818161129d01526115e90152611ddf6000f3fe608060405234801561001057600080fd5b50600436106100cf5760003560e01c806345c405731161008c5780637fa417b3116100665780637fa417b3146101a1578063a18c0495146101c8578063be42f91f146101db578063fe6d6145146101ee57600080fd5b806345c40573146101685780636b9e5e581461017b57806371bff7eb1461018e57600080fd5b80630856e0a9146100d457806308a9dc95146100e95780630e40fe9f146100fc57806313647c13146101175780631e4fff85146101215780632e716fb114610129575b600080fd5b6100e76100e2366004611906565b610201565b005b6100e76100f7366004611906565b610485565b610104606481565b6040519081526020015b60405180910390f35b6101046201518081565b610104600a81565b6101507f000000000000000000000000000000000000000000000000000000000000000081565b6040516001600160a01b03909116815260200161010e565b6100e76101763660046119be565b6106c2565b6100e76101893660046119be565b610993565b6100e761019c366004611a33565b610c96565b6101507f000000000000000000000000000000000000000000000000000000000000000081565b6100e76101d6366004611aa8565b610f76565b6100e76101e93660046119be565b611286565b6100e76101fc366004611aa8565b6115d2565b60405163030e8d4560e11b81526001600160a01b037f0000000000000000000000000000000000000000000000000000000000000000169063061d1a8a90610253908790879087908790600401611b9e565b602060405180830381865afa158015610270573d6000803e3d6000fd5b505050506040513d601f19601f820116820180604052508101906102949190611bfb565b6102e55760405162461bcd60e51b815260206004820152601e60248201527f496e76616c69642073746f7265206d616e6167656d656e742070726f6f66000060448201526064015b60405180910390fd5b805160208201516040808401519051630603acf160e41b81526000600482015233907f00000000000000000000000000000000000000000000000000000000000000006001600160a01b03169063603acf1090602401602060405180830381865afa158015610358573d6000803e3d6000fd5b505050506040513d601f19601f8201168201806040525081019061037c9190611c24565b6001600160a01b0316146103c45760405162461bcd60e51b815260206004820152600f60248201526e2737ba1039ba37b9329037bbb732b960891b60448201526064016102dc565b6040516333acbebd60e21b815260006004820152602481018390527f00000000000000000000000000000000000000000000000000000000000000006001600160a01b03169063ceb2faf490604401600060405180830381600087803b15801561042d57600080fd5b505af1158015610441573d6000803e3d6000fd5b5050604051600080825292507fc975b58b6a3d4a1eb0e2ca1b028ec4b8216b493d4793cbf0f29f084c9b3e675491506020015b60405180910390a250505050505050565b604051633dca1efd60e01b81526001600160a01b037f00000000000000000000000000000000000000000000000000000000000000001690633dca1efd906104d7908790879087908790600401611b9e565b602060405180830381865afa1580156104f4573d6000803e3d6000fd5b505050506040513d601f19601f820116820180604052508101906105189190611bfb565b61055d5760405162461bcd60e51b815260206004820152601660248201527524b73b30b634b21036b7bb32b6b2b73a10383937b7b360511b60448201526064016102dc565b80516020820151604080840151905163acd8630360e01b815233600482015283907f00000000000000000000000000000000000000000000000000000000000000006001600160a01b03169063acd8630390602401602060405180830381865afa1580156105cf573d6000803e3d6000fd5b505050506040513d601f19601f820116820180604052508101906105f39190611c4d565b146106105760405162461bcd60e51b81526004016102dc90611c66565b60405163d21c512560e01b81526001600160a01b037f0000000000000000000000000000000000000000000000000000000000000000169063d21c51259061065e9033908690600401611c9d565b600060405180830381600087803b15801561067857600080fd5b505af115801561068c573d6000803e3d6000fd5b50506040518481523392507fa03be62f8d0b2ea4f31a640a8f6b7ef7eb576d54522e05b94a337dc27d69beb39150602001610474565b604051639eea107560e01b81526001600160a01b037f00000000000000000000000000000000000000000000000000000000000000001690639eea107590610714908790879087908790600401611cb6565b602060405180830381865afa158015610731573d6000803e3d6000fd5b505050506040513d601f19601f820116820180604052508101906107559190611bfb565b6107985760405162461bcd60e51b815260206004820152601460248201527324b73b30b634b2103932bbb0b93210383937b7b360611b60448201526064016102dc565b805160208201516040808401516060850151915163acd8630360e01b815233600482015290919084907f00000000000000000000000000000000000000000000000000000000000000006001600160a01b03169063acd8630390602401602060405180830381865afa158015610812573d6000803e3d6000fd5b505050506040513d601f19601f820116820180604052508101906108369190611c4d565b146108535760405162461bcd60e51b81526004016102dc90611c66565b60405163cb7e657960e01b81526001600160a01b037f0000000000000000000000000000000000000000000000000000000000000000169063cb7e6579906108a19033908590600401611c9d565b600060405180830381600087803b1580156108bb57600080fd5b505af11580156108cf573d6000803e3d6000fd5b505060405163d21c512560e01b81526001600160a01b037f000000000000000000000000000000000000000000000000000000000000000016925063d21c512591506109219033908790600401611c9d565b600060405180830381600087803b15801561093b57600080fd5b505af115801561094f573d6000803e3d6000fd5b50506040518381523392507f106f923f993c2149d49b4255ff723acafa1f2d94393f561d3eda32ae348f724191506020015b60405180910390a25050505050505050565b604051633d18120960e21b81526001600160a01b037f0000000000000000000000000000000000000000000000000000000000000000169063f4604824906109e5908790879087908790600401611cb6565b602060405180830381865afa158015610a02573d6000803e3d6000fd5b505050506040513d601f19601f82011682018060405250810190610a269190611bfb565b610a725760405162461bcd60e51b815260206004820181905260248201527f496e76616c6964207265736f7572636520676174686572696e672070726f6f6660448201526064016102dc565b805160208201516040808401516060850151915163acd8630360e01b815233600482015290919084906001600160a01b037f0000000000000000000000000000000000000000000000000000000000000000169063acd8630390602401602060405180830381865afa158015610aec573d6000803e3d6000fd5b505050506040513d601f19601f82011682018060405250810190610b109190611c4d565b14610b5d5760405162461bcd60e51b815260206004820181905260248201527f506c6179657220737461746520636f6d6d69746d656e74206d69736d6174636860448201526064016102dc565b60405163d21c512560e01b81526001600160a01b037f0000000000000000000000000000000000000000000000000000000000000000169063d21c512590610bab9033908790600401611c9d565b600060405180830381600087803b158015610bc557600080fd5b505af1158015610bd9573d6000803e3d6000fd5b50506040516399e6805560e01b815260006004820152602481018490527f00000000000000000000000000000000000000000000000000000000000000006001600160a01b031692506399e680559150604401600060405180830381600087803b158015610c4657600080fd5b505af1158015610c5a573d6000803e3d6000fd5b505060408051600080825260208201523393507f536e81c2c491af46806b68fb1dc784641457483cf2afa518b12d4a6fdc4862e9925001610981565b60405163ca4547e160e01b81526001600160a01b037f0000000000000000000000000000000000000000000000000000000000000000169063ca4547e190610ce8908790879087908790600401611d07565b602060405180830381865afa158015610d05573d6000803e3d6000fd5b505050506040513d601f19601f82011682018060405250810190610d299190611bfb565b610d6c5760405162461bcd60e51b815260206004820152601460248201527324b73b30b634b2103a3930bb32b610383937b7b360611b60448201526064016102dc565b805160208201516040808401516060850151608086015160a0870151935163acd8630360e01b81523360048201529293919290919086907f00000000000000000000000000000000000000000000000000000000000000006001600160a01b03169063acd8630390602401602060405180830381865afa158015610df4573d6000803e3d6000fd5b505050506040513d601f19601f82011682018060405250810190610e189190611c4d565b14610e355760405162461bcd60e51b81526004016102dc90611c66565b604051634852a71760e01b81526001600160a01b037f00000000000000000000000000000000000000000000000000000000000000001690634852a71790610e839033908590600401611c9d565b600060405180830381600087803b158015610e9d57600080fd5b505af1158015610eb1573d6000803e3d6000fd5b505060405163d21c512560e01b81526001600160a01b037f000000000000000000000000000000000000000000000000000000000000000016925063d21c51259150610f039033908990600401611c9d565b600060405180830381600087803b158015610f1d57600080fd5b505af1158015610f31573d6000803e3d6000fd5b50506040518781523392507fa03be62f8d0b2ea4f31a640a8f6b7ef7eb576d54522e05b94a337dc27d69beb3915060200160405180910390a250505050505050505050565b6040516338ce63ad60e21b81526001600160a01b037f0000000000000000000000000000000000000000000000000000000000000000169063e3398eb490610fc8908790879087908790600401611d58565b602060405180830381865afa158015610fe5573d6000803e3d6000fd5b505050506040513d601f19601f820116820180604052508101906110099190611bfb565b61104b5760405162461bcd60e51b815260206004820152601360248201527224b73b30b634b2103a3930b23290383937b7b360691b60448201526064016102dc565b8051602082015160408084015160608501516080860151925163acd8630360e01b81523360048201529192909185907f00000000000000000000000000000000000000000000000000000000000000006001600160a01b03169063acd8630390602401602060405180830381865afa1580156110cb573d6000803e3d6000fd5b505050506040513d601f19601f820116820180604052508101906110ef9190611c4d565b1461113c5760405162461bcd60e51b815260206004820181905260248201527f506c6179657220737461746520636f6d6d69746d656e74206d69736d6174636860448201526064016102dc565b60405163d21c512560e01b81526001600160a01b037f0000000000000000000000000000000000000000000000000000000000000000169063d21c51259061118a9033908890600401611c9d565b600060405180830381600087803b1580156111a457600080fd5b505af11580156111b8573d6000803e3d6000fd5b50506040516333acbebd60e21b815260006004820152602481018590527f00000000000000000000000000000000000000000000000000000000000000006001600160a01b0316925063ceb2faf49150604401600060405180830381600087803b15801561122557600080fd5b505af1158015611239573d6000803e3d6000fd5b50506040805160008082526020820181905293503392507f54424bcd37c121359634358c4b6124e821af711811c1ad2fb8f96b94b046338c910160405180910390a3505050505050505050565b604051631d1ffb7360e11b81526001600160a01b037f00000000000000000000000000000000000000000000000000000000000000001690633a3ff6e6906112d8908790879087908790600401611cb6565b602060405180830381865afa1580156112f5573d6000803e3d6000fd5b505050506040513d601f19601f820116820180604052508101906113199190611bfb565b6113655760405162461bcd60e51b815260206004820152601c60248201527f496e76616c69642073746f72652070757263686173652070726f6f660000000060448201526064016102dc565b805160208201516040808401516060850151915163acd8630360e01b815233600482015290919084907f00000000000000000000000000000000000000000000000000000000000000006001600160a01b03169063acd8630390602401602060405180830381865afa1580156113df573d6000803e3d6000fd5b505050506040513d601f19601f820116820180604052508101906114039190611c4d565b146114205760405162461bcd60e51b81526004016102dc90611c66565b604051634852a71760e01b81526001600160a01b037f00000000000000000000000000000000000000000000000000000000000000001690634852a7179061146e9033908590600401611c9d565b600060405180830381600087803b15801561148857600080fd5b505af115801561149c573d6000803e3d6000fd5b5050604051638b73e82360e01b8152600481018590523360248201527f00000000000000000000000000000000000000000000000000000000000000006001600160a01b03169250638b73e8239150604401600060405180830381600087803b15801561150857600080fd5b505af115801561151c573d6000803e3d6000fd5b505060405163d21c512560e01b81526001600160a01b037f000000000000000000000000000000000000000000000000000000000000000016925063d21c5125915061156e9033908790600401611c9d565b600060405180830381600087803b15801561158857600080fd5b505af115801561159c573d6000803e3d6000fd5b50506040518481523392507fa962f65994670294763fa276cf6cf7f21dd5f151477704deb549762c80992af19150602001610981565b604051633432b00f60e21b81526001600160a01b037f0000000000000000000000000000000000000000000000000000000000000000169063d0cac03c90611624908790879087908790600401611d58565b602060405180830381865afa158015611641573d6000803e3d6000fd5b505050506040513d601f19601f820116820180604052508101906116659190611bfb565b6116a75760405162461bcd60e51b815260206004820152601360248201527224b73b30b634b21031b930b33a10383937b7b360691b60448201526064016102dc565b8051602082015160408084015160608501516080860151925163acd8630360e01b81523360048201529192909185907f00000000000000000000000000000000000000000000000000000000000000006001600160a01b03169063acd8630390602401602060405180830381865afa158015611727573d6000803e3d6000fd5b505050506040513d601f19601f8201168201806040525081019061174b9190611c4d565b146117685760405162461bcd60e51b81526004016102dc90611c66565b60405163d21c512560e01b81526001600160a01b037f0000000000000000000000000000000000000000000000000000000000000000169063d21c5125906117b69033908890600401611c9d565b600060405180830381600087803b1580156117d057600080fd5b505af11580156117e4573d6000803e3d6000fd5b50506040518381523392507fc23786d6f50f67fc05910a7c0e08cf6ad642ec7b6ec9f701ab0b1d9c479474e7915060200160405180910390a2505050505050505050565b634e487b7160e01b600052604160045260246000fd5b6040805190810167ffffffffffffffff8111828210171561186157611861611828565b60405290565b600082601f83011261187857600080fd5b61188061183e565b80604084018581111561189257600080fd5b845b818110156118ac578035845260209384019301611894565b509095945050505050565b600082601f8301126118c857600080fd5b6118d061183e565b8060808401858111156118e257600080fd5b845b818110156118ac576118f68782611867565b84526020909301926040016118e4565b60008060008061016080868803121561191e57600080fd5b6119288787611867565b945061193787604088016118b7565b93506119468760c08801611867565b92508661011f87011261195857600080fd5b6040516060810181811067ffffffffffffffff8211171561197b5761197b611828565b60405290860190808883111561199057600080fd5b61010088015b838110156119ae578035825260209182019101611996565b5050809250505092959194509250565b6000806000806101808086880312156119d657600080fd5b6119e08787611867565b94506119ef87604088016118b7565b93506119fe8760c08801611867565b92508661011f870112611a1057600080fd5b6040516080810181811067ffffffffffffffff8211171561197b5761197b611828565b6000806000806101c0808688031215611a4b57600080fd5b611a558787611867565b9450611a6487604088016118b7565b9350611a738760c08801611867565b92508661011f870112611a8557600080fd5b60405160c0810181811067ffffffffffffffff8211171561197b5761197b611828565b6000806000806101a0808688031215611ac057600080fd5b611aca8787611867565b9450611ad987604088016118b7565b9350611ae88760c08801611867565b92508661011f870112611afa57600080fd5b60405160a0810181811067ffffffffffffffff8211171561197b5761197b611828565b8060005b6002811015611b40578151845260209384019390910190600101611b21565b50505050565b806000805b6002808210611b5a5750611b97565b835186845b83811015611b7d578251825260209283019290910190600101611b5f565b505050604095909501945060209290920191600101611b4b565b5050505050565b6101608101611bad8287611b1d565b611bba6040830186611b46565b611bc760c0830185611b1d565b61010082018360005b6003811015611bef578151835260209283019290910190600101611bd0565b50505095945050505050565b600060208284031215611c0d57600080fd5b81518015158114611c1d57600080fd5b9392505050565b600060208284031215611c3657600080fd5b81516001600160a01b0381168114611c1d57600080fd5b600060208284031215611c5f57600080fd5b5051919050565b60208082526019908201527f537461746520636f6d6d69746d656e74206d69736d6174636800000000000000604082015260600190565b6001600160a01b03929092168252602082015260400190565b6101808101611cc58287611b1d565b611cd26040830186611b46565b611cdf60c0830185611b1d565b61010082018360005b6004811015611bef578151835260209283019290910190600101611ce8565b6101c08101611d168287611b1d565b611d236040830186611b46565b611d3060c0830185611b1d565b61010082018360005b6006811015611bef578151835260209283019290910190600101611d39565b6101a08101611d678287611b1d565b611d746040830186611b46565b611d8160c0830185611b1d565b61010082018360005b6005811015611bef578151835260209283019290910190600101611d8a56fea264697066735822122015de3ed2ebbac76b22709e4ecd6998023acbf8077349aaa8463ea69d4af2612e64736f6c63430008140033",
  "linkReferences": {},
  "deployedLinkReferences": {}
}